:1000000071C0000081C000007FC000007DC0000002
:100010007BC0000079C0000077C0000075C0000000
:1000200073C0000071C000006FC000006DC0000010
:100030006BC0000069C0000067C0000065C0000020
:1000400063C0000061C000005FC000005DC0000030
:100050005BC0000059C0000057C0000055C0000040
:1000600053C0000051C000004FC000004DC0000050
:100070004BC0000049C0000047C0000045C0000060
:1000800043C0000041C000003FC000003DC0000070
:100090003BC0000039C0000037C0000035C0000080
:1000A00033C0000031C000002FC000002DC0000090
:1000B0002BC0000029C0000027C0000025C00000A0
:1000C00023C0000021C000001FC00000A3C000002A
:1000D0001BC0000019C0000017C0000015C00000C0
:1000E00013C0000011241FBECFEFD1E2DEBFCDBF91
:1000F00000E00CBF22E0A0E0B2E001C01D92A034FD
:10010000B207E1F7E6D1E8C17BCF3B9A4398089567
:1001100081B18F6081B982B1807F82B9EAE0F1E07C
:10012000808188618083EBE0F1E080818861808359
:10013000089510BA11BA109207011092080108959B
:10014000E7DFE3DFF6CF0895E1EDF0E010821092F3
:10015000D00086E08093D2008FE58093D400109287
:10016000D50088E980830895EAE7F0E010821092D4
:100170007B0080E280937C0080E880BF86E88083FB
:100180000895E1E2F1E010828FEF8093250191E084
:1001900090932401109229018093280110922B0141
:1001A00080932A0110922D0180932C0189EA80937B
:1001B00020018BE080830895F894C2DFC5DFD4DF8F
:1001C000E0DF78940895883018F098E090937B00F1
:1001D0008770806280937C0010923E02EAE7F0E034
:1001E000808180648083808184FFFDCF809179004D
:1001F000EAE7F0E090819061908310927B0008958F
:10020000EBE0F1E08081826180830895439A089554
:10021000439808951F920F920FB60F9211240BB6B8
:100220000F922F933F938F939F93AF93BF93EF932F
:10023000FF939091D60090933D02E0EDF0E0808135
:100240008823E9F380910702811145C09A3071F447
:1002500080910902E82FF0E0EC5DFD4F90838F5F05
:100260008093090281E080930A0235C080910A02DE
:10027000813039F59D3079F580910902E82FF0E061
:10028000EC5DFD4F908331E0380F3093090292E02E
:1002900090930A0291E09093070210920802332390
:1002A000D1F0ABE0B2E0E4E2F2E090E0845F9D4F99
:1002B00020812D931192A817B907D1F73093080226
:1002C0000AC080910902E82FF0E0EC5DFD4F9083B9
:1002D0008F5F80930902FF91EF91BF91AF919F9142
:1002E0008F913F912F910F900BBE0F900FBE0F90EB
:1002F0001F90189580910502811103C064DF8093DF
:10030000D60080910502813019F45DDF8093D6001C
:1003100080910502823019F456DF8093D6008091D7
:100320000502833019F44FDF8093D60080910502D7
:10033000843019F448DF8093D6008091050285301F
:1003400019F441DF8093D60080910502863019F4BC
:100350003ADF8093D60080910502873019F433DFAD
:100360008093D60080910502883019F42CDF8093A9
:10037000D60080910502893019F425DF8093D600DC
:10038000809105028A3019F41EDF8093D600809197
:1003900005028B3019F417DF8093D6008091050297
:1003A0008C3019F410DF8093D600809105028D30D7
:1003B00019F409DF8093D600809105028E3059F43C
:1003C00002DF8093D600809105028E3021F48FE009
:1003D000FADE8093D600089580910502813049F4B9
:1003E00080910302811102C011DF03C08130A1F5A9
:1003F0000FDF80910502823079F58091030281112F
:1004000004C0FEDE86E082B90895813021F4F8DE72
:1004100089E082B90895823021F4F2DE8AE082B95F
:100420000895833021F4ECDE85E082B908958430AC
:1004300019F4E6DE12B80895893071F486E082B9C5
:10044000809101028093D600809100029091010278
:100450009093280180932A010895809106028130AB
:1004600061F0811125C080910402811102C042CF48
:1004700008958130E9F4B0CF089580910B02809304
:10048000050280910C028093040280910D028093FA
:10049000030280910E028093020280910F028093EA
:1004A0000102809110028093000210920602DBCFBD
:1004B000089580910702813059F410920902109238
:1004C00008021092070210920A0280930602C5CF1A
:0C04D000089572DEEEDFFECFF894FFCF3F
:00000001FF
