:1000000071C0000081C000007FC000007DC0000002
:100010007BC00000F0C10000C1C1000075C000003D
:1000200073C0000071C000006FC000006DC0000010
:100030006BC0000069C0000067C0000065C0000020
:1000400063C0000061C000005FC000005DC0000030
:100050005BC0000059C0000057C0000055C0000040
:1000600053C0000051C000004FC000004DC0000050
:100070004BC0000049C0000047C0000045C0000060
:1000800043C0000041C000003FC000003DC0000070
:100090003BC0000039C0000037C0000035C0000080
:1000A00033C0000031C000002FC000002DC0000090
:1000B0002BC0000029C0000027C0000025C00000A0
:1000C00023C0000021C000001FC0000015C30000B5
:1000D0001BC0000019C0000017C0000015C00000C0
:1000E00013C0000011241FBECFEFD1E2DEBFCDBF91
:1000F00000E00CBF22E0A0E0B2E001C01D92A035FC
:10010000B207E1F74BD573C67BCFCF93DF93CDB763
:10011000DEB787E290E027E230E0F9012081286035
:10012000FC01208388E290E028E230E0F9012081A0
:10013000277FFC012083DF91CF910895CF93DF9338
:10014000CDB7DEB781E290E021E230E0F901208115
:100150002F60FC01208382E290E022E230E0F9018E
:100160002081207FFC0120838AE091E02AE031E0B9
:10017000F90120812861FC0120838BE091E02BE0D4
:1001800031E0F90120812861FC012083DF91CF91CA
:100190000895CF93DF93CDB7DEB78DE290E02DE2E7
:1001A00030E0F90120812F7EFC0120838EE290E077
:1001B0002EE230E0F90120812061FC012083DF91F3
:1001C000CF910895CF93DF93CDB7DEB78DE290E066
:1001D0002DE230E0F90120812F7DFC0120838EE2A9
:1001E00090E02EE230E0F90120812062FC012083C2
:1001F000DF91CF910895CF93DF93CDB7DEB780E342
:1002000090E0FC01108281E390E0FC01108287E025
:1002100091E0FC01108288E091E0FC011082DF9106
:10022000CF910895CF93DF93CDB7DEB787DF6DDF32
:10023000B0DFC8DFE0DFDF91CF910895CF93DF9388
:10024000CDB7DEB781ED90E0FC01108280ED90E04B
:10025000FC01108282ED90E026E0FC01208384ED19
:1002600090E02FE5FC01208385ED90E0FC011082F9
:1002700081ED90E028E9FC012083DF91CF91089582
:10028000CF93DF93CDB7DEB78AE790E0FC01108211
:100290008BE790E0FC0110828CE790E020E2FC010B
:1002A000208380E590E020E8FC0120838AE790E04D
:1002B00026E8FC012083DF91CF910895CF93DF934F
:1002C000CDB7DEB781E291E0FC01108285E291E0DA
:1002D0002FEFFC01208384E291E021E0FC012083E8
:1002E00089E291E0FC01108288E291E02FEFFC01AD
:1002F00020838BE291E0FC0110828AE291E02FEFF3
:10030000FC0120838DE291E0FC0110828CE291E0FF
:100310002FEFFC01208380E291E029EAFC01208399
:1003200081E291E02BE0FC012083DF91CF910895E1
:10033000CF93DF93CDB7DEB7F8948AE690E02AE654
:1003400030E0F90120812260FC0120838DE390E000
:100350002DE330E0F90120812061FC0120837894B5
:10036000DF91CF910895CF93DF93CDB7DEB7F894A7
:100370008AE690E02AE630E0F90120812860FC015D
:1003800020838DE390E02DE330E0F90120812062AD
:10039000FC0120837894DF91CF9108951F920F92F2
:1003A00000905F000F9211248F939F93AF93BF93A0
:1003B000CF93DF93CDB7DEB7809144029091450291
:1003C000A0914602B09147020196A11DB11D8093F4
:1003D000440290934502A0934602B0934702DF91F6
:1003E000CF91BF91AF919F918F910F9000925F003D
:1003F0000F901F9018951F920F9200905F000F9220
:1004000011248F939F93AF93BF93CF93DF93CDB777
:10041000DEB78091400290914102A0914202B091DA
:1004200043020196A11DB11D8093400290934102A9
:10043000A0934202B0934302DF91CF91BF91AF915D
:100440009F918F910F9000925F000F901F901895D1
:10045000CF93DF93CDB7DEB7F894E4DEEFDE10DFA5
:100460002DDF66DF80DF7894DF91CF910895CF9301
:10047000DF931F921F92CDB7DEB78A838A818830BF
:1004800028F08BE790E028E0FC0120838A818770C8
:100490008A838CE790E02A812062FC0120831092FD
:1004A00048028AE790E02AE730E0F90120812064E1
:1004B000FC01208300008AE790E0FC018081882F06
:1004C00090E0807199270097B1F389E790E0FC01F3
:1004D000808189838AE790E02AE730E0F901208172
:1004E0002061FC0120838BE790E0FC011082898170
:1004F0000F900F90DF91CF910895CF93DF931F92CC
:100500001F92CDB7DEB789836A8388E291E02981A3
:10051000FC0120838AE291E02A81FC0120830F9074
:100520000F90DF91CF910895CF93DF93CDB7DEB7D2
:100530008BE091E02BE031E0F90120812261FC01A8
:100540002083DF91CF910895CF93DF93CDB7DEB7AE
:1005500088E290E028E230E0F90120812860FC0187
:100560002083DF91CF910895CF93DF93CDB7DEB78E
:1005700088E290E028E230E0F9012081277FFC0149
:100580002083DF91CF910895CF93DF93CDB7DEB76E
:1005900082E290E026E0FC012083DF91CF91089574
:1005A000CF93DF93CDB7DEB782E290E029E0FC0184
:1005B0002083DF91CF910895CF93DF93CDB7DEB73E
:1005C00082E290E025E0FC012083DF91CF91089545
:1005D000CF93DF93CDB7DEB782E290E02AE0FC0153
:1005E0002083DF91CF910895CF93DF93CDB7DEB70E
:1005F00082E290E0FC011082DF91CF910895CF93C9
:10060000DF93CDB7DEB72A970FB6F894DEBF0FBEE3
:10061000CDBF9A87898719821A821B821C821D820C
:100620001E821F82188689859A85CC01A0E0B0E0E1
:10063000BC01CD014ED3DC01CB0125EE30ED4AEA01
:1006400050E4BC01CD01B1D2DC01CB0189839A8396
:10065000AB83BC8369817A818B819C810ED3DC0161
:10066000CB018D839E83AF83B88710924402109292
:1006700045021092460210924702209144023091A6
:10068000450240914602509147028D819E81AF8183
:10069000B88582179307A407B50708F401C0EDCF0A
:1006A000A3DF2A960FB6F894DEBF0FBECDBFDF9151
:1006B000CF910895CF93DF931F921F92CDB7DEB7EE
:1006C0009A83898361DF89819A8199DF0F900F90E6
:1006D000DF91CF910895CF93DF931F921F92CDB7F3
:1006E000DEB79A8389835CDF89819A8188DF0F90E6
:1006F0000F90DF91CF9108951F920F9200905F00AD
:100700000F92112400905B000F922F933F938F93D1
:100710009F93EF93FF93CF93DF93CDB7DEB786ED33
:1007200090E0FC01808180930002000080ED90E069
:10073000FC0180818823D1F380913602882309F05F
:1007400074C0809100028A3099F480913402882F1D
:1007500090E0209100028F5F9D4FFC0120838091EB
:1007600034028F5F8093340281E0809333025DC056
:1007700080913302813009F040C0809100028D30B9
:10078000E1F580913402882F90E0209100028F5F84
:100790009D4FFC012083809134028F5F809334024F
:1007A00082E08093330281E080933602109235021A
:1007B0001DC080913502882F90E020913502222FB4
:1007C00030E02F5F3D4FF9012081865E9D4FFC0197
:1007D000208380913502882F90E08F5F9D4FFC0130
:1007E0001082809135028F5F80933502909135029F
:1007F000809134029817E8F218C08091330281305A
:1008000029F4809100028D3009F00FC080913402EC
:10081000882F90E0209100028F5F9D4FFC01208384
:10082000809134028F5F80933402DF91CF91FF91EA
:10083000EF919F918F913F912F910F9000925B00CC
:100840000F9000925F000F901F9018950F931F93C9
:10085000CF93DF93CDB7DEB780913802882331F490
:1008600006ED10E080E003DEF8018083809138021D
:10087000813031F406ED10E081E0F9DDF80180838C
:1008800080913802823031F406ED10E082E0EFDD35
:10089000F801808380913802833031F406ED10E056
:1008A00083E0E5DDF801808380913802843031F403
:1008B00006ED10E084E0DBDDF801808380913802F2
:1008C000853031F406ED10E085E0D1DDF80180835C
:1008D00080913802863031F406ED10E086E0C7DD05
:1008E000F801808380913802873031F406ED10E002
:1008F00087E0BDDDF801808380913802883031F4D3
:1009000006ED10E088E0B3DDF801808380913802C5
:10091000893031F406ED10E089E0A9DDF80180832B
:10092000809138028A3031F406ED10E08AE09FDDD4
:10093000F8018083809138028B3031F406ED10E0AD
:100940008BE095DDF8018083809138028C3031F4A2
:1009500006ED10E08CE08BDDF80180838091380299
:100960008D3031F406ED10E08DE081DDF8018083FB
:10097000809138028E3031F406ED10E08EE077DDA4
:10098000F8018083809138028E3031F406ED10E05A
:100990008FE06DDDF8018083DF91CF911F910F9182
:1009A0000895CF93DF93CDB7DEB7809138028130C1
:1009B00059F480913A02882311F4C6DD05C0809174
:1009C0003A02813009F4D0DD80913802823009F09A
:1009D00033C080913A02882319F4A6DDD5DD2CC0FE
:1009E00080913A02813019F49FDDDADD25C08091D3
:1009F0003A02823019F498DDEBDD1EC080913A0294
:100A0000833019F491DDD8DD17C080913A0284302B
:100A100019F48ADDE9DD10C080913A02893061F471
:100A2000B3DD80913E0290913F02282F80913C02DD
:100A300090913D02622F61DD80913802833091F404
:100A400080913A02882329F480913C0290913D02E2
:100A500031DE80913A02813029F480913C029091FC
:100A60003D0239DEDF91CF910895CF93DF93CDB76B
:100A7000DEB762C080911A028093380280911B0217
:100A80008093390280911C0280933A0280911D026A
:100A900080933B0280913B02807180934C02809155
:100AA0003B028F7080934E0280913B02882F90E032
:100AB000807199270097C9F080911E0280934F02A0
:100AC00080911F0280934B0280914B02882F90E00F
:100AD000382F222780914F02882F90E0820F931F9A
:100AE00090933D0280933C0225C080914E02882F56
:100AF00090E08130910521F08230910551F01AC0CB
:100B000080911E02882F90E090933D0280933C02DA
:100B100011C080911E02882F90E090933D02809337
:100B20003C0280911F02882F90E090933F028093B7
:100B30003E0200001092370280913702813009F4A2
:100B400099CF80913702882331F48091390288232C
:100B500011F47CDE09C080913702882329F480914A
:100B60003902813009F41DDFDF91CF910895CF93D1
:100B7000DF93CDB7DEB780913602813061F41092F9
:100B8000340210923502109236021092330281E044
:100B9000809337026ADFDF91CF910895CF93DF937F
:100BA000CDB7DEB755DCE3DFFECF0CD0E6C0DED03C
:100BB00040F0D5D030F021F45F3F19F0C7C051119B
:100BC00010C1CAC0EBD098F39923C9F35523B1F3F0
:100BD000951B550BBB27AA2762177307840738F0AC
:100BE0009F5F5F4F220F331F441FAA1FA9F333D00B
:100BF0000E2E3AF0E0E830D091505040E695001CBF
:100C0000CAF729D0FE2F27D0660F771F881FBB1F7A
:100C1000261737074807AB07B0E809F0BB0B802D54
:100C2000BF01FF2793585F4F2AF09E3F510568F0A0
:100C30008DC0D7C05F3FECF3983EDCF38695779587
:100C40006795B795F7959F5FC9F7880F911D9695A2
:100C5000879597F90895E1E0660F771F881FBB1FFE
:100C6000621773078407BA0720F0621B730B840BAB
:100C7000BA0BEE1F88F7E095089598D088F09F573B
:100C800090F0B92F9927B751A0F0D1F0660F771FD8
:100C9000881F991F1AF0BA95C9F712C0B13081F0B8
:100CA0009FD0B1E008959CC0672F782F8827B85F48
:100CB00039F0B93FCCF3869577956795B395D9F719
:100CC0003EF490958095709561957F4F8F4F9F4F23
:100CD0000895E89409C097FB3EF49095809570952F
:100CE00061957F4F8F4F9F4F9923A9F0F92F96E978
:100CF000BB279395F695879577956795B795F111ED
:100D0000F8CFFAF4BB0F11F460FF1BC06F5F7F4F89
:100D10008F4F9F4F16C0882311F096E911C077239B
:100D200021F09EE8872F762F05C0662371F096E8A4
:100D3000862F70E060E02AF09A95660F771F881F73
:100D4000DAF7880F9695879597F9089597F99F6731
:100D500080E870E060E008959FEF80EC0895002443
:100D60000A941616170618060906089500240A9410
:100D700012161306140605060895092E0394000C96
:100D800011F4882352F0BB0F40F4BF2B11F460FF25
:100D900004C06F5F7F4F8F4F9F4F089557FD90584E
:100DA000440F551F59F05F3F71F04795880F97FB2F
:100DB000991F61F09F3F79F08795089512161306E9
:100DC0001406551FF2CF4695F1DF08C01616170618
:100DD0001806991FF1CF869571056105089408954D
:100DE000E894BB2766277727CB0197F90895F894F5
:020DF000FFCF33
:00000001FF
