S014000046697265626972642D5270692E7372656391
S113000071C0000083C0000081C000007FC00000F8
S11300107DC00000CAC200009BC2000077C000007F
S113002075C0000073C0000071C000006FC0000004
S11300306DC000006BC0000069C0000067C0000014
S113004065C0000063C0000061C000005FC0000024
S11300505DC000005BC0000059C0000057C0000034
S113006055C0000053C0000051C000004FC0000044
S11300704DC000004BC0000049C0000047C0000054
S113008045C0000043C0000041C000003FC0000064
S11300903DC000003BC0000039C0000037C0000074
S11300A035C0000033C0000031C000002FC0000084
S11300B02DC000002BC0000029C0000027C0000094
S11300C025C0000023C0000021C00000D2C50000EC
S11300D01DC000001BC0000019C0000017C00000B4
S11300E015C0000011241FBECFEFD1E2DEBFCDBF8B
S11300F000E00CBF22E0A0E0B2E001C01D92A035F8
S1130100B207E1F70E943F090C945C0B79CFCF93BF
S1130110DF93CDB7DEB787E290E027E230E0F90164
S113012020812860FC01208388E290E028E230E00E
S1130130F9012081277FFC012083DF91CF9108956D
S1130140CF93DF93CDB7DEB781E290E021E230E0D8
S1130150F90120812F60FC01208382E290E022E2F9
S113016030E0F9012081207FFC0120838AE091E0C6
S11301702AE031E0F90120812861FC0120838BE031
S113018091E02BE031E0F90120812861FC0120831A
S1130190DF91CF910895CF93DF93CDB7DEB78DE292
S11301A090E02DE230E0F90120812F7EFC012083D4
S11301B08EE290E02EE230E0F90120812061FC0122
S11301C02083DF91CF910895CF93DF93CDB7DEB72E
S11301D08DE290E02DE230E0F90120812F7DFC01D9
S11301E020838EE290E02EE230E0F901208120624B
S11301F0FC012083DF91CF910895CF93DF93CDB796
S1130200DEB780E390E0FC01108281E390E0FC0122
S1130210108287E091E0FC01108288E091E0FC010B
S11302201082DF91CF910895CF93DF93CDB7DEB7DE
S113023084E290E024E230E0F90120812062FC01B4
S1130240208385E290E025E230E0F90120812062FC
S1130250FC012083DF91CF910895CF93DF93CDB735
S1130260DEB784E290E024E230E0F90120812064EA
S1130270FC01208385E290E025E230E0F901208151
S11302802064FC012083DF91CF910895CF93DF9305
S1130290CDB7DEB784E290E024E230E0F9012081BA
S11302A02068FC01208385E290E025E230E0F9013A
S11302B020812068FC012083DF91CF910895CF93A2
S11302C0DF93CDB7DEB784E091E02FEFFC0120830C
S11302D085E091E0FC011082DF91CF910895CF93E6
S11302E0DF93CDB7DEB784E290E024E230E0F90199
S11302F020812760FC01208385E290E025E230E044
S1130300F90120812760FC012083DF91CF910895BA
S1130310CF93DF93CDB7DEB713DFF9DE3CDF54DFD5
S11303206CDF82DF9ADFB2DFCADFD9DFDF91CF91E2
S11303300895CF93DF93CDB7DEB781ED90E0FC0154
S1130340108280ED90E0FC01108282ED90E026E0C6
S1130350FC01208384ED90E02FE5FC01208385EDF2
S113036090E0FC01108281ED90E028E9FC012083FB
S1130370DF91CF910895CF93DF93CDB7DEB78AE7AE
S113038090E0FC0110828BE790E0FC0110828CE786
S113039090E020E2FC01208380E590E020E8FC016D
S11303A020838AE790E026E8FC012083DF91CF9147
S11303B00895CF93DF93CDB7DEB781E291E0FC01DE
S11303C0108285E291E02FEFFC01208384E291E02A
S11303D021E0FC01208389E291E0FC01108288E2A3
S11303E091E02FEFFC0120838BE291E0FC0110826D
S11303F08AE291E02FEFFC0120838DE291E0FC0181
S113040010828CE291E02FEFFC01208380E291E0E6
S113041029EAFC01208381E291E02BE0FC012083A6
S1130420DF91CF910895CF93DF93CDB7DEB781E805
S113043090E0FC01108285E890E02CEFFC01208321
S113044084E890E021E0FC01208389E890E023E047
S1130450FC01208388E890E02FEFFC0120838BE8E7
S113046090E023E0FC0120838AE890E02FEFFC0178
S113047020838DE890E023E0FC0120838CE890E069
S11304802FEFFC01208387E890E023E0FC01208328
S113049086E890E02FEFFC01208380E890E02BEACF
S11304A0FC01208382E890E0FC01108281E890E066
S11304B02CE0FC012083DF91CF910895CF93DF934B
S11304C0CDB7DEB7F8948AE690E02AE630E0F90189
S11304D020812260FC0120838DE390E02DE330E055
S11304E0F90120812061FC0120837894DF91CF9170
S11304F00895CF93DF93CDB7DEB7F8948AE690E002
S11305002AE630E0F90120812860FC0120838DE394
S113051090E02DE330E0F90120812062FC0120838A
S11305207894DF91CF910895CF93DF93CDB7DEB761
S11305308CE490E023E5FC0120838DE490E0FC0151
S113054010828EE490E0FC011082DF91CF91089537
S11305501F920F9200905F000F9211248F939F932C
S1130560AF93BF93CF93DF93CDB7DEB780914402AF
S113057090914502A0914602B09147020196A11DB7
S1130580B11D8093440290934502A0934602B09318
S11305904702DF91CF91BF91AF919F918F910F90BF
S11305A000925F000F901F9018951F920F92009079
S11305B05F000F9211248F939F93AF93BF93CF93B8
S11305C0DF93CDB7DEB78091400290914102A091B4
S11305D04202B09143020196A11DB11D80934002D5
S11305E090934102A0934202B0934302DF91CF91D2
S11305F0BF91AF919F918F910F9000925F000F90E8
S11306001F901895CF93DF93CDB7DEB7F89480DEB3
S113061090DEB1DECEDE52DF6CDF05DF85DF78945D
S1130620DF91CF910895CF93DF931F921F92CDB79F
S1130630DEB78A838A81883028F08BE790E028E04F
S1130640FC0120838A8187708A838CE790E02A8169
S11306502062FC012083109248028AE790E02AE796
S113066030E0F90120812064FC01208300008AE746
S113067090E0FC018081882F90E080719927009799
S1130680B1F389E790E0FC01808189838AE790E0F7
S11306902AE730E0F90120812061FC0120838BE707
S11306A090E0FC01108289810F900F90DF91CF912F
S11306B00895CF93DF931F921F92CDB7DEB789833E
S11306C06A8388E291E02981FC0120838AE291E037
S11306D02A81FC0120830F900F90DF91CF91089520
S11306E0CF93DF93CDB7DEB78BE091E02BE031E021
S11306F0F90120812261FC012083DF91CF910895CB
S1130700CF93DF93CDB7DEB788E290E028E230E004
S1130710F90120812860FC012083DF91CF910895A5
S1130720CF93DF93CDB7DEB788E290E028E230E0E4
S1130730F9012081277FFC012083DF91CF91089567
S1130740CF93DF93CDB7DEB782E290E026E0FC01E1
S11307502083DF91CF910895CF93DF93CDB7DEB798
S113076082E290E029E0FC012083DF91CF9108959B
S1130770CF93DF93CDB7DEB782E290E025E0FC01B2
S11307802083DF91CF910895CF93DF93CDB7DEB768
S113079082E290E02AE0FC012083DF91CF9108956A
S11307A0CF93DF93CDB7DEB782E290E0FC011082F5
S11307B0DF91CF910895CF93DF93CDB7DEB72A971A
S11307C00FB6F894DEBF0FBECDBF9A878987198212
S11307D01A821B821C821D821E821F8218868985B2
S11307E09A85CC01A0E0B0E0BC01CD014CD6DC017F
S11307F0CB0125EE30ED4AEA50E4BC01CD01AFD582
S1130800DC01CB0189839A83AB83BC8369817A81C0
S11308108B819C810CD6DC01CB018D839E83AF83BD
S1130820B887109244021092450210924602109228
S11308304702209144023091450240914602509172
S113084047028D819E81AF81B88582179307A407E3
S1130850B50708F401C0EDCFA3DF2A960FB6F894CC
S1130860DEBF0FBECDBFDF91CF910895CF93DF934D
S11308701F921F92CDB7DEB79A83898361DF898186
S11308809A8199DF0F900F90DF91CF910895CF93C4
S1130890DF931F921F92CDB7DEB79A8389835CDF03
S11308A089819A8188DF0F900F90DF91CF9108950D
S11308B00F931F93CF93DF9300D01F921F92CDB756
S11308C0DEB78D8319821A821B821C828D81882F48
S11308D090E0A0E0B0E0BC01CD01D5D5DC01CB01B6
S11308E02BE734E14EEE5FE3BC01CD0138D5DC01EA
S11308F0CB0120E030E04CE052E4BC01CD01C7D490
S1130900DC01CB0189839A83AB83BC8389E890E0C3
S1130910FC01108208E810E069817A818B819C8156
S113092086D5DC01CB01F80180830F900F900F90E6
S11309300F900F90DF91CF911F910F9108950F9316
S11309401F93CF93DF9300D01F921F92CDB7DEB7D2
S11309508D8319821A821B821C828D81882F90E0DC
S1130960A0E0B0E0BC01CD018ED5DC01CB012BE7CA
S113097034E14EEE5FE3BC01CD01F1D4DC01CB01E7
S113098020E030E04CE052E4BC01CD0180D4DC0135
S1130990CB0189839A83AB83BC838BE890E0FC0111
S11309A010820AE810E069817A818B819C813FD5AD
S11309B0DC01CB01F80180830F900F900F900F9012
S11309C00F90DF91CF911F910F9108950F931F9373
S11309D0CF93DF9300D01F921F92CDB7DEB78D83E4
S11309E019821A821B821C828D81882F90E0A0E0DC
S11309F0B0E0BC01CD0147D5DC01CB012BE734E1EC
S1130A004EEE5FE3BC01CD01AAD4DC01CB0120E0B2
S1130A1030E04CE052E4BC01CD0139D4DC01CB011F
S1130A2089839A83AB83BC838DE890E0FC011082B8
S1130A300CE810E069817A818B819C81F8D4DC0117
S1130A40CB01F80180830F900F900F900F900F90BF
S1130A50DF91CF911F910F910895CF93DF93CDB77D
S1130A60DEB789E890E023E0FC01208388E890E089
S1130A702FEFFC012083DF91CF910895CF93DF9373
S1130A80CDB7DEB78BE890E023E0FC0120838AE851
S1130A9090E02FEFFC012083DF91CF910895CF9355
S1130AA0DF93CDB7DEB78DE890E023E0FC0120832F
S1130AB08CE890E02FEFFC012083DF91CF91089523
S1130AC0CF93DF931F92CDB7DEB7898385E091E0A2
S1130AD025E031E0F90130812981232BFC012083B9
S1130AE00F90DF91CF910895CF93DF931F92CDB7ED
S1130AF0DEB7898385E091E025E031E0F9013081BA
S1130B0029812323FC0120830F90DF91CF91089545
S1130B10CF93DF93CDB7DEB760970FB6F894DEBFFF
S1130B200FBECDBF888B198285E290E025E230E0CC
S1130B30F90120812E7FFC0120838EE490E0288936
S1130B40FC01208300008DE490E0FC018081882377
S1130B50D4F780E090E0A0E8BFE38A839B83AC8372
S1130B60BD8326E636E646E655E46A817B818C81C0
S1130B709D813FD5DC01CB018E839F83A887B987F4
S1130B8020E030E040E85FE36E817F8188859985CD
S1130B90E2D388232CF481E090E09B878A873BC0D2
S1130BA020E03FEF4FE757E46E817F818885998588
S1130BB01CD518163CF520E030E040E251E46A818F
S1130BC07B818C819D8115D5DC01CB01BC01CD01DC
S1130BD02ED4DC01CB019B878A870FC080E791E08C
S1130BE09D878C878C859D850197F1F79D878C87E0
S1130BF08A859B8501979B878A878A859B85009731
S1130C0069F713C06E817F818885998510D4DC01D2
S1130C10CB019B878A878A859B859F878E878E8554
S1130C209F850197F1F79F878E878EE490E020E5FA
S1130C30FC01208300008DE490E0FC018081882386
S1130C40D4F78EE490E0FC018081898385E290E012
S1130C5025E230E0F90120812160FC0120838981B3
S1130C6060960FB6F894DEBF0FBECDBFDF91CF9173
S1130C7008951F920F9200905F000F92112400902C
S1130C805B000F922F933F938F939F93EF93FF9368
S1130C90CF93DF93CDB7DEB786ED90E0FC01808182
S1130CA080930002000080ED90E0FC0180818823A5
S1130CB0D1F380913602882309F074C08091000238
S1130CC08A3099F480913402882F90E020910002B8
S1130CD08F5F9D4FFC012083809134028F5F80934E
S1130CE0340281E0809333025DC08091330281300D
S1130CF009F040C0809100028D30E1F5809134020A
S1130D00882F90E0209100028F5F9D4FFC0120838B
S1130D10809134028F5F8093340282E080933302A7
S1130D2081E080933602109235021DC08091350215
S1130D30882F90E020913502222F30E02F5F3D4F25
S1130D40F9012081865E9D4FFC012083809135024C
S1130D50882F90E08F5F9D4FFC01108280913502B7
S1130D608F5F8093350290913502809134029817F9
S1130D70E8F218C080913302813029F48091000296
S1130D808D3009F00FC080913402882F90E02091BB
S1130D9000028F5F9D4FFC012083809134028F5F9E
S1130DA080933402DF91CF91FF91EF919F918F91C6
S1130DB03F912F910F9000925B000F9000925F0083
S1130DC00F901F9018950F931F93CF93DF93CDB778
S1130DD0DEB780913802882309F0AFC080913A02CF
S1130DE0882339F406ED10E080E01DDCF8018083EF
S1130DF0A4C080913A02813039F406ED10E081E01C
S1130E0012DCF801808399C080913A02823039F46F
S1130E1006ED10E082E007DCF80180838EC080914B
S1130E203A02833039F406ED10E083E0FCDBF8018C
S1130E30808383C080913A02843039F406ED10E057
S1130E4084E0F1DBF801808378C080913A02853038
S1130E5039F406ED10E085E0E6DBF80180836DC02F
S1130E6080913A02863039F406ED10E086E0DBDB4F
S1130E70F801808362C080913A02873039F406ED2C
S1130E8010E087E0D0DBF801808357C080913A02FC
S1130E90883039F406ED10E088E0C5DBF801808382
S1130EA04CC080913A02893039F406ED10E089E0B3
S1130EB0BADBF801808341C080913A028A3039F468
S1130EC006ED10E08AE0AFDBF801808336C0809144
S1130ED03A028B3039F406ED10E08BE0A4DBF80124
S1130EE080832BC080913A028C3039F406ED10E0F7
S1130EF08CE099DBF801808320C080913A028D3028
S1130F0039F406ED10E08DE08EDBF801808315C026
S1130F1080913A028E3039F406ED10E08EE083DBE6
S1130F20F80180830AC080913A028E3031F406EDD4
S1130F3010E08FE078DBF801808380913802813003
S1130F4009F057C080913A02882339F406ED10E085
S1130F5080E0DEDDF80180834CC080913A0281306C
S1130F6039F406ED10E081E0D3DDF801808341C05F
S1130F7080913A02823039F406ED10E082E0C8DD57
S1130F80F801808336C080913A02833039F406ED4B
S1130F9010E083E0BDDDF80180832BC080913A022C
S1130FA0843039F406ED10E084E0B2DDF80180838A
S1130FB020C080913A02853039F406ED10E085E0D6
S1130FC0A7DDF801808315C080913A02863039F498
S1130FD006ED10E086E09CDDF80180830AC0809174
S1130FE03A02873031F406ED10E087E091DDF80134
S1130FF08083DF91CF911F910F910895CF93DF9359
S1131000CDB7DEB780913802813059F480913A022D
S1131010882311F475DB05C080913A02813009F40C
S11310207FDB80913802823009F033C080913A022C
S1131030882319F455DB84DB2CC080913A0281307B
S113104019F44EDB89DB25C080913A02823019F411
S113105047DB9ADB1EC080913A02833019F440DBEF
S113106087DB17C080913A02843019F439DB98DBAE
S113107010C080913A02893061F462DB80913E02B3
S113108090913F02282F80913C0290913D02622F63
S113109010DB80913802833091F480913A028823E6
S11310A029F480913C0290913D02E0DB80913A0268
S11310B0813029F480913C0290913D02E8DB8091DB
S11310C03802843051F580913A02882329F48091C2
S11310D03C0290913D02ECDB80913A02813029F48C
S11310E080913C0290913D022ADC80913A02823048
S11310F029F480913C0290913D0268DC80913A028F
S1131100833009F4AADC80913A02843009F4B6DC15
S113111080913A02853009F4C2DC8091380285302E
S113112091F480913A02882329F480913C029091B1
S11311303D02C6DC80913A02813029F480913C0260
S113114090913D02D1DCDF91CF910895CF93DF934D
S1131150CDB7DEB762C080911A02809338028091C5
S11311601B028093390280911C0280933A02809181
S11311701D0280933B0280913B02807180934C025C
S113118080913B028F7080934E0280913B02882FA6
S113119090E0807199270097C9F080911E02809396
S11311A04F0280911F0280934B0280914B02882F43
S11311B090E0382F222780914F02882F90E0820FF1
S11311C0931F90933D0280933C0225C080914E0270
S11311D0882F90E08130910521F08230910551F003
S11311E01AC080911E02882F90E090933D02809354
S11311F03C0211C080911E02882F90E090933D0222
S113120080933C0280911F02882F90E090933F02CC
S113121080933E02000010923702809137028130A1
S113122009F499CF80913702882331F480913902EF
S1131230882311F4C8DD09C080913702882329F47A
S113124080913902813009F4D9DEDF91CF9108957C
S1131250CF93DF93CDB7DEB780913602813061F44E
S11312601092340210923502109236021092330218
S113127081E0809337026ADFDF91CF910895CF93A5
S1131280DF93CDB7DEB7BED9E3DFFECF5058BB271F
S1131290AA270ED070C161D130F066D120F031F4AC
S11312A09F3F11F41EF456C10EF4E095E7FB4CC1C8
S11312B0E92F72D180F3BA17620773078407950781
S11312C018F071F49EF58AC10EF4E0950B2EBA2F36
S11312D0A02D0B01B90190010C01CA01A001112438
S11312E0FF27591B99F0593F50F4503E68F11A16E4
S11312F0F040A22F232F342F4427585FF3CF469575
S113130037952795A795F0405395C9F77EF41F1696
S1131310BA0B620B730B840BBAF09150A1F0FF0F60
S1131320BB1F661F771F881FC2F70EC0BA0F621F4C
S1131330731F841F48F4879577956795B795F7953C
S11313409E3F08F0B3CF9395880F08F09927EE0FCE
S1131350979587950895D4D008F481E008950CD02A
S11313600AC102D140F0F9D030F021F45F3F19F006
S1131370EBC0511134C1EEC00FD198F39923C9F3D6
S11313805523B1F3951B550BBB27AA276217730787
S1131390840738F09F5F5F4F220F331F441FAA1F3B
S11313A0A9F333D00E2E3AF0E0E830D091505040FB
S11313B0E695001CCAF729D0FE2F27D0660F771FA9
S11313C0881FBB1F261737074807AB07B0E809F08B
S11313D0BB0B802DBF01FF2793585F4F2AF09E3F20
S11313E0510568F0B1C0FBC05F3FECF3983EDCF3FD
S11313F0869577956795B795F7959F5FC9F7880F99
S1131400911D9695879597F90895E1E0660F771FEA
S1131410881FBB1F621773078407BA0720F0621B7B
S1131420730B840BBA0BEE1F88F7E0950895BCD0BC
S113143088F09F5790F0B92F9927B751A0F0D1F0B9
S1131440660F771F881F991F1AF0BA95C9F712C043
S1131450B13081F0C3D0B1E00895C0C0672F782FB8
S11314608827B85F39F0B93FCCF3869577956795AF
S1131470B395D9F73EF490958095709561957F4F1B
S11314808F4F9F4F0895E89409C097FB3EF49095C1
S11314908095709561957F4F8F4F9F4F9923A9F049
S11314A0F92F96E9BB279395F695879577956795D8
S11314B0B795F111F8CFFAF4BB0F11F460FF1BC01C
S11314C06F5F7F4F8F4F9F4F16C0882311F096E9AF
S11314D011C0772321F09EE8872F762F05C066235D
S11314E071F096E8862F70E060E02AF09A95660F16
S11314F0771F881FDAF7880F9695879597F90895CF
S1131500990F0008550FAA0BE0E8FEEF1616170610
S1131510E807F907C0F012161306E407F50798F078
S1131520621B730B840B950B39F40A2661F0232B91
S1131530242B252B21F408950A2609F4A140A6950D
S11315408FEF811D811D089597F99F6780E870E0F2
S113155060E008959FEF80EC089500240A94161625
S1131560170618060906089500240A94121613068D
S1131570140605060895092E0394000C11F488231B
S113158052F0BB0F40F4BF2B11F460FF04C06F5F37
S11315907F4F8F4F9F4F089557FD9058440F551F0D
S11315A059F05F3F71F04795880F97FB991F61F0E1
S11315B09F3F79F087950895121613061406551F58
S11315C0F2CF4695F1DF08C0161617061806991FC4
S11315D0F1CF86957105610508940895E894BB27B9
S11315E066277727CB0197F908958ADF08F48FEFF0
S11315F008950BD0C0CFB1DF28F0B6DF18F09523E3
S113160009F0A2CFA7CF1124EACFC6DFA0F3959F9C
S1131610D1F3950F50E0551F629FF001729FBB27D5
S1131620F00DB11D639FAA27F00DB11DAA1F649F81
S11316306627B00DA11D661F829F2227B00DA11D34
S1131640621F739FB00DA11D621F839FA00D611DBA
S1131650221F749F3327A00D611D231F849F600DDB
S1131660211D822F762F6A2F11249F5750408AF014
S1131670E1F088234AF0EE0FFF1FBB1F661F771FA0
S1131680881F91505040A9F79E3F510570F05CCFE0
S1131690A6CF5F3FECF3983EDCF38695779567958C
S11316A0B795F795E7959F5FC1F7FE2B880F911DBE
S10F16B09695879597F90895F894FFCF5C
S9030000FC
